:1000000045C0000060C000005EC000005CC0000091
:100010005AC0000058C0000056C0000054C0000084
:1000200052C0000050C000004EC000004CC0000094
:100030004AC0000048C0000046C0000044C00000A4
:10004000EFC1000040C000003EC000003CC0000006
:100050003AC0000038C0000036C0000034C00000C4
:1000600032C0000030C000002EC000002CC00000D4
:100070002AC0000028C0000026C0000024C00000E4
:1000800022C0000020C000001EC0000011241FBEBE
:10009000CFEFD0E1DEBFCDBF11E0A0E0B1E0EEE6F2
:1000A000F4E000E00BBF02C007900D92A032B10750
:1000B000D9F721E0A0E2B1E001C01D92A432B2075D
:1000C000E1F76ED1D2C19CCF84B38F7D84BB84B362
:1000D0008F7784BB84B3806184BB85B3806185BB2B
:1000E000089582B3806482BB85E08A95F1F70000B1
:1000F00082B38F7B82BB0895CF93C82F662321F0F4
:1001000082B3806882BB03C082B38F7782BBE2E692
:10011000F0E080818D7F808381B3806281BB81B379
:10012000806181BB81B3886081BB81B3846081BB06
:1001300082B38B7F82BB82B3877F82BB82B38F7E89
:1001400082BB82B38F7D82BBCC231CF482B38460DC
:1001500082BBC6FF03C082B3886082BBC5FF03C0F9
:1001600082B3806182BBC4FF03C082B3806282BB62
:10017000B8DF82B38B7F82BB82B3877F82BB82B3BF
:100180008F7E82BB82B38F7D82BBC3FF03C082B3ED
:10019000846082BBC2FF03C082B3886082BBC1FFA0
:1001A00003C082B3806182BBC0FF03C082B38062A0
:1001B00082BB97DF82B3806282BB82B3806182BBE5
:1001C00082B3886082BB82B3846082BBCF91089582
:1001D000882321F082B3806882BB03C082B38F770B
:1001E00082BBE2E6F0E080818260808381B38F7D14
:1001F00081BB81B38F7E81BB81B3877F81BB81B39C
:100200008B7F81BB82B3806482BB85E08A95F1F7E6
:100210000000859902C080E001C080E1849980627D
:10022000839980648299806892B39F7B92BB95E0AA
:100230009A95F1F7000092B3906492BB95E09A957D
:10024000F1F70000859981608499826083998460C8
:100250008299886092B39F7B92BB089580E0B8DF5B
:100260008823E4F385E18A95F1F7000080E0B0CFC0
:100270000895CF93C82FF2DF60E08C2F3DDFCF9140
:100280000895611103C08058F4CF0895613019F4C6
:100290008054EFCF0895623019F48C56EACF089558
:1002A0008C52E7CF089581E0E4CF0895CF93C82F13
:1002B000D5DFCA3099F4843148F090EC980F94312E
:1002C00038F084518C3230F484E505C080E403C0FA
:1002D00084E101C080E08058CCDF03C061E08C2F56
:1002E0000BDFCF910895CF93DF93FC0102C0DEDFD7
:1002F000FE01EF01219680818111F9CFDF91CF912D
:100300000895CF93C82F81B3806881BBE1E6F0E008
:1003100080818260808381B3806481BB81B380628D
:1003200081BB81B3806181BB81B3886081BB81B3B4
:10033000846081BB8FEF99EF0197F1F700C0000057
:1003400082B3806182BB82B3806282BBCADE8FE1EE
:100350009EE40197F1F700C00000C3DE8FEF90E04C
:100360000197F1F700C00000BCDE8FEF90E001972D
:10037000F1F700C0000082B38F7D82BBB2DE8FEF49
:1003800090E00197F1F700C0000088E272DF88E09A
:1003900070DF89DF86E06DDF8C2F6BDFCF910895F2
:1003A00093DE8CE0AEDF61E084E06BDF80E091E023
:1003B0009ADF2FEF8DE399E4215080409040E1F7E0
:1003C00000C0000070DF2FEF89E698E121508040E7
:1003D0009040E1F700C0000080E191E084DF2FEF62
:1003E00083ED90E3215080409040E1F700C0000091
:1003F0005ADF2FEF89E698E1215080409040E1F7E5
:1004000000C0000088E191E06EDF2FEF83ED90E304
:10041000215080409040E1F700C0000044DFD3CF7E
:100420001F920F920FB60F9211248F939F93AF9349
:10043000BF938091200190912101A0912201B09160
:1004400023010196A11DB11D8093200190932101EC
:10045000A0932201B0932301BF91AF919F918F91FF
:0E0460000F900FBE0F901F901895F894FFCFCD
:10046E0048656C6C6F2062792041546D6567610040
:10047E005465736C6E696B00576F726B696E6700B3
:00000001FF
